:100000000C9430000C94BA010C94BA010C94BA010F
:100010000C94BA010C94BA010C94BA010C94BA0174
:100020000C94BA010C94BA010C94BA010C94BA0164
:100030000C94BA010C94BA010C94BA010C94BA0154
:100040000C94BA010C94BA010C94BA010C94BA0144
:100050000C94BA010060007000038200700072808E
:1000600011241FBECFE5D8E0DEBFCDBFE4E5F0E050
:1000700040E017C0B591A59135912591059107FDF7
:100080000CC095918591EF01F92FE82F05900D9205
:10009000A217B307D9F7FE0104C01D92A217B30738
:1000A000E1F7E036F40731F70E947C010C94AA01D5
:0400B000F894FFCFF2
:1000B400CF93DF93CDB7DEB760970FB6F894DEBF6A
:1000C4000FBECDBF80E1E0E6F0E0DE0111960190C5
:1000D4000D928A95E1F760E070E043C082B39B0122
:1000E4002C5F3F4F41E050E002C0440F551F2A955A
:1000F400E2F7E42F942F9095892382BB20E030E02F
:1001040028C080B390E0022E02C0959587950A948A
:10011400E2F780FD1CC080B390E0022E02C09595EA
:1001240087950A94E2F780FFF6CF660F771F660F74
:10013400771F81E090E08C0F9D1F680F791FDB0112
:10014400A20FB31F8C9192B3E92BE2BB0FC02F5FB8
:100154003F4F24303105ACF282B3482B42BB6F5F72
:100164007F4F643071050CF4B9CFB5CF60960FB6EC
:0E017400F894DEBF0FBECDBFDF91CF9108958E
:10018200CF93C82F8091700090917100409721F415
:1001920060E082E00E9434018091700090917100D1
:1001A200809759F481E00E94590160E081E00E9449
:1001B2003401109271001092700080917000909141
:1001C2007100019690937100809370008BB38F70D1
:1001D2009C2F907F892B8BBB88B3826088BB88B3AE
:1001E2008B7F88BB0E9491012BB330E1C39FC0017A
:1001F2001124922F9F70892B8BBB88B3826088BB9E
:0E02020088B38B7F88BB0E949101CF91089535
:1002100087E893E10197F1F700C0000087B382609F
:1002200087BB87B3846087BB87B3886087BB88B38D
:100230008D7F88BB88B38B7F88BB88B3877F88BB63
:100240008FEF8ABB0E949E0182E00E94590188E2E2
:100250000E94590186E00E94590180E80E945901DC
:080260008EE00E94590108958F
:10026800CF93DF93C82FD62F813061F4603150F4DB
:1002780080E8860F0E9459018D2F90E090937100BD
:1002880080937000C23071F4D03160F480EC8D0F2F
:100298000E9459016D2F70E0605F7F4F709371006D
:0A02A80060937000DF91CF9108957C
:1002B200CF93C82F8BB38F709C2F907F892B8BBBD2
:1002C20088B38B7F88BB88B38D7F88BB0E949101E6
:1002D2002BB330E1C39FC0011124922F9F70892B51
:1002E2008BBB88B38B7F88BB88B38D7F88BB0E9412
:0602F2009101CF91089577
:1002F8000E9408010E94B50183ED90E30197F1F790
:1003080000C000000E945A00833621F481E00E9458
:0A0318005901F8CF0E94C100F5CF93
:1003220088B3886088BB83ED90E30197F1F700C042
:0A033200000088B3877F88BB0895A0
:10033C0081E00E945901109271001092700060E0EF
:08034C0081E00E9434010895D4
:10035400EC010E94BF010E94BE01CE010E94C001B7
:06036400CE010E94BC0165
:0A036A0080EF81BB8FEF82BB089586
:040374000C940000E5
:040378000E94580087
:02037C000895E2
:02037E000895E0
:020380000895DE
:1003820037343163383532303936333D2F2A2D2B0D
:00000001FF
