:100000000C942A000C9459000C9459000C9459003B
:100010000C9459000C9459000C9459000C945900FC
:100020000C9459000C9459000C9459000C945900EC
:100030000C9459000C9459000C9459000C945900DC
:100040000C9459000C9459000C9459000C945900CC
:100050000C94590011241FBECFE5D8E0DEBFCDBF00
:0C0060000E9436000C944E00F894FFCF74
:10006C0081B3806181BB81B38E7F81BB809BFECFCE
:10007C0082B3806182BB2FEF89E698E121508040EA
:10008C009040E1F700C0000082B38F7E82BBEECFC0
:10009C00EC010E945E000E945D00CE010E945F0098
:0600AC00CE010E945B0082
:0400B2000C940000AA
:0400B6000E94340070
:0200BA000895A7
:0200BC000895A5
:0200BE000895A3
:00000001FF
