:100000000C942A000C945D000C945D000C945D002F
:100010000C945D000C945D000C945D000C945D00EC
:100020000C945D000C945D000C945D000C945D00DC
:100030000C945D000C945D000C945D000C945D00CC
:100040000C945D000C945D000C945D000C945D00BC
:100050000C945D0011241FBECFE5D8E0DEBFCDBFFC
:0C0060000E9436000C945200F894FFCF70
:10006C008FEF8ABB14BA81E085BB80E090E010C0B2
:10007C0098990EC04BB321E030E0082E02C0220F3D
:10008C00331F0A94E2F7242B2BBB989BFECF0196CF
:08009C00883091056CF3E9CFF7
:1000A400EC010E9462000E946100CE010E94630084
:0600B400CE010E945F0076
:0400BA000C940000A2
:0400BE000E94340068
:0200C20008959F
:0200C40008959D
:0200C60008959B
:00000001FF
