:100000000C942A000C9436000C9452000C946E0050
:100010000C94AF000C94AF000C94AF000C94AF00A4
:100020000C94AF000C94AF000C94AF000C94AF0094
:100030000C94AF000C94AF000C94AF000C94AF0084
:100040000C94AF000C94AF000C94AF000C94AF0074
:100050000C94AF0011241FBECFE5D8E0DEBFCDBFAA
:0C0060000E948A000C94A400F894FFCFCA
:10006C001F920F920FB60F9211242F938F939F9381
:10007C0082B3806282BB2FEF89E698E121508040E9
:10008C009040E1F700C000009F918F912F910F904D
:08009C000FBE0F901F90189594
:1000A4001F920F920FB60F9211242F938F939F9349
:1000B40082B3806482BB2FEF89E698E121508040AF
:1000C4009040E1F700C000009F918F912F910F9015
:0800D4000FBE0F901F9018955C
:1000DC001F920F920FB60F9211242F938F939F9311
:1000EC0082B3806882BB2FEF89E698E12150804073
:1000FC009040E1F700C000009F918F912F910F90DD
:08010C000FBE0F901F90189523
:1001140080EF81BB17BA85B78D6085BF84B78F7BAD
:1001240084BF8BB7806E8BBF789482B38F7182BB90
:100134002FEF89E698E1215080409040E1F700C01C
:040144000000F3CFF5
:10014800EC010E94B4000E94B300CE010E94B500E9
:06015800CE010E94B1007F
:04015E000C940000FD
:040162000E943400C3
:020166000895FA
:020168000895F8
:02016A000895F6
:00000001FF
