:100000000C942A000C947B000C947B000C947B00D5
:100010000C947B000C947B000C947B000C947B0074
:100020000C947B000C947B000C947B000C947B0064
:100030000C947B000C947B000C947B000C947B0054
:100040000C947B000C947B000C947B000C947B0044
:100050000C947B0011241FBECFE5D8E0DEBFCDBFDE
:0C0060000E9436000C947000F894FFCF52
:10006C008FEF84BB60E070E031C0CA01829592953D
:10007C00907F9827807F9827846085BB8FE19EE4D2
:10008C000197F1F700C00000CB0182959295907F0B
:10009C009827807F9827886085BB8FE19EE4019725
:1000AC00F1F700C00000C90102C084E190E09C019E
:1000BC0021503109892BC9F64F5F5F4F02C040E0D8
:1000CC0050E04A3051058CF36F5F7F4F6A307105F9
:0400DC00B4F3C8CFE2
:1000E000EC010E9480000E947F00CE010E948100EE
:0600F000CE010E947D001C
:0400F6000C94000066
:0400FA000E9434002C
:0200FE00089563
:02010000089560
:0201020008955E
:00000001FF
